:100000000C9496110C94D6110C94D6110C94D61114
:100010000C94D6110C94D6110C94D6110C94D611C4
:100020000C94D6110C94D6110C94D6110C94D611B4
:100030000C94D6110C94D6110C94D6110C94D611A4
:100040000C94D6110C949F8F0C94D6110C94D6114D
:100050000C94D6110C9453880C94D6110C94E18610
:100060000C94D6110C94E88F0C94DE8F0C94D6115E
:100070000C94D6110C94D6110C94D6110C94D61164
:100080000C94D6110C94D6110C94D6110C94D61154
:100090000C94D6110C94D6110C94D6110C94D61144
:1000A0000C94D6110C94D6110C94D6110C94D61134
:1000B0000C94D6110C94D6110C94D6110C94D61124
:1000C0000C94D6110C94D6110C94D6110C94D61114
:1000D0000C94D6110C94D6110C94D6110C94D61104
:1000E0000C94D611084AD73B3BCE016E84BCBFFDB1
:1000F000C12F3D6C74319ABD56833DDA3D00C77FF8
:1001000011BED9E4BB4C3E916BAAAABE0000008090
:100110003F05A84CCDB2D44EB93836A9020C50B91F
:10012000918688083CA6AAAA2ABE000000803F004B
:100130004E414E494E495459494E46CDCCCC3D0ACC
:10014000D7233C17B7D13877CC2B329595E6241FAF
:10015000B14F0A000020410000C84200401C462068
:10016000BCBE4CCA1B0E5AAEC59D7400407A10F33B
:100170005A00A0724E18090010A5D4E80000E876D5
:1001800048170000E40B54020000CA9A3B0000002C
:10019000E1F505000080969800000040420F000045
:1001A00000A08601000000102700000000E8030006
:1001B0000000006400000000000A000000000001D0
:1001C00000000000002C76D888DC674F0823DFC1D0
:1001D000DFAE59E1B1B796E5E3E453C63AE651998B
:1001E0007696E8E6C28426EB898C9B62ED407C6FB4
:1001F000FCEFBC9C9F40F2BAA56FA5F490055A2A6B
:10020000F75C936B6CF9676DC11BFCE0E40D47FE76
:10021000F520E6B500D0ED902E030094357705006B
:1002200080841E080000204E0A000000C80C3333F2
:1002300033330F986E12831141EF8D2114893BE601
:100240005516CFFEE6DB18D1844B381BF77C1D908A
:100250001DA4BBE424203284725E228100C9F124F3
:10026000ECA1E53D27434F4D4D554E49434154497F
:100270004F4E0044525952554E004552524F525320
:1002800000494E464F004543484F005A5F5354457E
:10029000505F50494E005A5F454E41424C455F50B9
:1002A000494E005A5F4449525F50494E00595F53CE
:1002B0005445505F50494E00595F454E41424C45B0
:1002C0005F50494E00595F4449525F50494E0058B3
:1002D0005F535445505F50494E00585F454E414270
:1002E0004C455F50494E00585F4449525F50494E5B
:1002F000005A5F4D494E5F50524F42455F50494E44
:10030000005A5F4D494E5F50494E005A5F4D41586B
:100310005F50494E00595F53544F505F50494E0053
:10032000595F4D494E5F50494E00595F4D41585FEE
:1003300050494E00585F53544F505F50494E00583B
:100340005F4D494E5F50494E00585F4D41585F50D8
:10035000494E00534552564F335F50494E00534566
:1003600052564F325F50494E00534552564F315FFF
:1003700050494E00534552564F305F50494E00533E
:10038000445F53535F50494E00534453530053440A
:100390005F53434B5F50494E0053445F4D4F5349A9
:1003A0005F50494E0053445F4D49534F5F50494E93
:1003B000004D4F534645545F445F50494E004D4FEA
:1003C000534645545F435F50494E004D4F53464599
:1003D000545F425F50494E004D4F534645545F4174
:1003E0005F50494E0054454D505F305F43535F505E
:1003F000494E004C45445F50494E004845415445E4
:10040000525F4245445F50494E0048454154455271
:100410005F305F50494E0046414E305F50494E00BC
:1004200045315F43535F50494E0045315F5354455A
:10043000505F50494E0045315F454E41424C455F4B
:1004400050494E0045315F4449525F50494E004586
:10045000305F535445505F50494E0045305F454E24
:1004600041424C455F50494E0045305F4449525F20
:1004700050494E00455850325F30385F50494E0069
:10048000455850325F30375F50494E004558503222
:100490005F30365F50494E00455850325F30355F0F
:1004A00050494E00455850325F30345F50494E003D
:1004B000455850325F30335F50494E0045585032F6
:1004C0005F30325F50494E00455850325F30315FE7
:1004D00050494E00455850315F30385F50494E000A
:1004E000455850315F30375F50494E0045585031C4
:1004F0005F30365F50494E00455850315F30355FB0
:1005000050494E00455850315F30345F50494E00DD
:10051000455850315F30335F50494E004558503197
:100520005F30325F50494E00455850315F30315F87
:1005300050494E004156525F53535F50494E00415F
:1005400056525F53434B5F50494E004156525F4DE8
:100550004F53495F50494E004156525F4D49534FEA
:100560005F50494E0054454D505F4245445F5049ED
:100570004E0054454D505F315F50494E0054454D3B
:10058000505F305F50494E0046494C5749445448EB
:100590005F50494E00545844300052584430000DCA
:1005A0000E0302260E0F3812133E1A1C180A2009D9
:1005B0000800016563686F3A004572726F723A0015
:1005C0004F4646004F4E000A0A426564204C65764D
:1005D000656C20436F7272656374696F6E204D6144
:1005E000747269783A002F332E0A0050726F626974
:1005F0006E6720706F696E74200020284452595233
:10060000554E2900473239204175746F2042656488
:10061000204C6576656C696E67003F2856296572C7
:10062000626F7365206C6576656C20696D706C61B6
:10063000757369626C652028302D34292E0A0047B5
:1006400032384C300020440020204D3230302053CE
:1006500000202844697361626C6564293A00466928
:100660006C616D656E742073657474696E67730078
:1006700020204D3230312058004D61782041636395
:10068000656C65726174696F6E2028756E6974732C
:100690002F7332290020204D3230332058004D6115
:1006A00078206665656472617465732028756E696B
:1006B00074732F73290020520020204D32303420D3
:1006C0005000416363656C65726174696F6E2028C8
:1006D000756E6974732F7332292028503C707269CB
:1006E0006E742D616363656C3E20523C726574725A
:1006F0006163742D616363656C3E20543C74726168
:1007000076656C2D616363656C3E2900204A00208C
:10071000540020530020204D3230352042004164E7
:1007200076616E6365642028423C6D696E5F736517
:10073000676D656E745F74696D655F75733E205398
:100740003C6D696E5F66656564726174653E2054D8
:100750003C6D696E5F74726176656C5F6665656439
:10076000726174653E204A3C6A756E635F646576AB
:100770003E290020440020490020204D3330312004
:100780005000486F74656E64205049440050574DC6
:100790003A20202534640050574D3A2020253464F7
:1007A0000050574D3A20202534640050574D3A20D0
:1007B000202534640050574D3A20202534640050E1
:1007C000574D3A20202534640050574D3A202025BB
:1007D00034640050574D3A20202534640050574D62
:1007E0003A20202534640050574D3A2020253464A7
:1007F0000050574D3A20202534640050574D3A2080
:10080000202534640050574D3A2020253464005090
:10081000574D3A20202534640050574D3A2020256A
:1008200034640050574D3A2020253464003A2000AB
:1008300020202020434F4D002020206E6F6E2D730E
:1008400074616E646172642050574D206D6F6465F1
:1008500000202020636F6D7061726520696E746581
:10086000727275707420656E61626C656400202020
:10087000206F766572666C6F7720696E7465727230
:1008800075707420656E61626C6564003A200020AA
:1008900020202054494D534B00423A200020202074
:1008A000205443435200413A20002020202054434A
:1008B0004352002020202043533A200020202020B3
:1008C00057474D3A200050574D3A202025346400B8
:1008D00050574D3A2020253464004700480000005E
:1008E00088008A008C00B300B400000098009A00D1
:1008F0009C00A800AA00AC0028012A012C0120209D
:10090000202054494D455200440045006E008000AF
:1009100081006F00B000B100700090009100710084
:10092000A000A10072002001210173002069732042
:10093000616C736F207469656420746F20746869DA
:10094000732070696E0054494D45523143000A20AE
:100950002E002020002020506F72743A20004C4F4F
:100960005700484947480047322F473320626164A7
:1009700020706172616D65746572730A005A20504F
:10098000726F62652050617374204265640A005A78
:100990002050726F6265205061737420426564005C
:1009A000205A3A0020593A0042656420583A0025FE
:1009B00069730025696D2025697300256968202504
:1009C000696D2025697300256964202569682025E3
:1009D000696D2025697300256979202569642025C2
:1009E00069682025696D20256973005072696E74ED
:1009F0002074696D653A2000446F6E652E0A0050C0
:100A0000756C73696E6720202000556E746F756376
:100A10006865642000534552564F206E6F742073F2
:100A200065742075702E0A00202D200057617463B4
:100A300068696E672070696E0020697300732061B9
:100A40007265002070726F7465637465642E205542
:100A500073652027492720746F206F76657272694D
:100A600064652E0A00537065636966696564207069
:100A7000696E0064697300656E0061626C65640094
:100A8000656E6473746F70206D6F6E69746F722021
:100A9000006F6B004C696E653A20006F66660086D9
:100AA0000281027A027302650244454255473A00C8
:100AB0004D31313320530020732E0A00496E61639B
:100AC0007469766974792074696D656F7574200036
:100AD000434F4E4649475F4558504F5254004D458D
:100AE00041545041434B00434F4F4C45525F544596
:100AF0004D5045524154555245004348414D4245A1
:100B0000525F54454D504552415455524500455051
:100B10005F42414259535445500042414259535457
:100B2000455050494E470041524353004D4F5449A0
:100B30004F4E5F4D4F44455300544845524D414C34
:100B40005F50524F54454354494F4E004558544509
:100B50004E4445445F4D323000435553544F4D5F32
:100B60004649524D574152455F55504C4F41440004
:100B70004C464E5F5752495445004C4F4E475F46D6
:100B8000494C454E414D45004155544F5245504FFB
:100B900052545F53445F5354415455530053445F80
:100BA000575249544500524550454154005344431F
:100BB0004152440050524F4D50545F535550504F86
:100BC000525400484F53545F414354494F4E5F4382
:100BD0004F4D4D414E445300454D455247454E43C0
:100BE000595F50415253455200434153455F4C4970
:100BF0004748545F4252494748544E455353005466
:100C00004F47474C455F4C494748545300534F4664
:100C100054574152455F504F574552004255494C39
:100C2000445F50455243454E54004C4556454C494F
:100C30004E475F44415441005A5F50524F42450075
:100C400052554E4F5554004155544F4C4556454C06
:100C5000005052494E545F4A4F420050524F475243
:100C6000455353004155544F5245504F52545F54D1
:100C7000454D50004155544F5245504F52545F50CE
:100C80004F5300564F4C554D45545249430045452E
:100C900050524F4D0042494E4152595F46494C45D2
:100CA0005F5452414E534645520053455249414CC0
:100CB0005F584F4E5F584F4646004649524D574188
:100CC00052455F4E414D453A4D61726C696E20321E
:100CD0002E312E332D626574613220284A756E20C4
:100CE000323820323032352031343A34333A3239E6
:100CF0002920534F555243455F434F44455F55525A
:100D00004C3A6769746875622E636F6D2F4D61721E
:100D10006C696E4669726D776172652F4D61726C98
:100D2000696E2050524F544F434F4C5F56455253BB
:100D3000494F4E3A312E30204D414348494E455F90
:100D4000545950453A3344205072696E746572208C
:100D50004B494E454D41544943533A436172746582
:100D60007369616E2045585452554445525F434F54
:100D7000554E543A3120555549443A6365646532BD
:100D80006132662D343161322D343734382D396279
:100D900031322D6335356336326633363766660059
:100DA0002F2F003F4A206F7574206F662072616E8E
:100DB00067652028302E303120746F20302E332983
:100DC0000A002058003B200020204D61783A200086
:100DD000200020204D696E3A2000203B200020207A
:100DE0004D323131205300250A0046523A00204648
:100DF0006C6F773A200064697300656E00432900C8
:100E000061626C656420286D696E2074656D702068
:100E100000436F6C6420657874727564657320613B
:100E200072652000426564204C6576656C696E676A
:100E300020004661696C656420746F20656E616294
:100E40006C6520426564204C6576656C696E670A46
:100E500000426564204C6576656C20436F72726554
:100E60006374696F6E204D61747269783A00546FD3
:100E70006F206661722066726F6D204D494E2F4D56
:100E800041580A00454550524F4D204F4B0A00290A
:100E90000A0020746F20003F5A206F7574206F661F
:100EA0002072616E6765202800290A0020746F2077
:100EB000003F59206F7574206F662072616E676500
:100EC000202800290A0020746F20003F58206F75E9
:100ED00074206F662072616E67652028002E0A00FC
:100EE0002028302D313029002076616C7565206F07
:100EF0007574206F662072616E676500416476616B
:100F00006E6365204B3D006F6B0020204D32303604
:100F1000205800486F6D65206F66667365740043E6
:100F200061703A0020746F6F206C6F6E6720657877
:100F300074727573696F6E2070726576656E746514
:100F4000640A0020636F6C6420657874727573693D
:100F50006F6E2070726576656E7465640A00203B62
:100F60000020204D3835312058005A2D50726F62C4
:100F700065204F66667365740020573A0020573A23
:100F800000206661696C65642120426164206865A7
:100F9000617465722069640A005049442041757487
:100FA0006F74756E650023646566696E65204445DF
:100FB0004641554C545F004B6420004B6920004B68
:100FC0007020002066696E69736865642120507521
:100FD0007420746865206C617374204B702C204BF6
:100FE0006920616E64204B6420636F6E7374616E60
:100FF00074732066726F6D2062656C6F7720696E06
:10100000746F20436F6E66696775726174696F6E85
:101010002E680A00504944204175746F74756E65DE
:1010200000206661696C6564212074696D656F7567
:10103000740A00504944204175746F74756E6500E0
:10104000206661696C6564212054656D706572610C
:101050007475726520746F6F20686967680A005044
:101060004944204175746F74756E6500204B643A75
:101070002000204B693A2000204B703A200020438A
:101080006C617373696320504944200A00205475D1
:101090003A2000204B753A2000206D61783A2000FC
:1010A000206D696E3A200020643A20002062696158
:1010B000733A20002073746172740A00504944200E
:1010C0004175746F74756E6500206661696C656446
:1010D000212054656D706572617475726520746F3E
:1010E0006F20686967680A00504944204175746F31
:1010F00074756E65006F70656E00545249474745C0
:10110000524544003A20007A5F6D696E00795F6D48
:10111000617800785F6D6178005265706F727469F4
:101120006E6720656E6473746F702073746174757C
:10113000730A000000704300005C43000000005789
:1011400061726E696E673A20486F6D696E67204202
:10115000756D702044697669736F72203C20310A86
:10116000000202040000704300005C4300003E43A4
:101170000000A0400000A0400000004000007043BC
:1011800000005C4300003E4300000000000000003F
:1011900000000000290A002062797465733B206317
:1011A0007263200053657474696E67732053746FA3
:1011B000726564202800204D61726C696E3D56395D
:1011C00030290A00454550524F4D207665727369AB
:1011D0006F6E206D69736D6174636820284545509A
:1011E000524F4D3D00454550524F4D206461746152
:1011F00073697A65206572726F722E0A0057617288
:101200006E696E673A00202863616C63756C617467
:10121000656429210A0020213D2000454550524F98
:101220004D20435243206D69736D61746368202DB6
:10123000202873746F726564292000454550524F11
:101240004D20436F72727570740A002053697A657D
:101250003A2000496E6465783A200020627974650E
:10126000733B2063726320002073746F7265642087
:1012700073657474696E67732072657472696576DC
:101280006564202800454550524F4D20496E6974D1
:1012900069616C697A65640A0048617264636F64AD
:1012A00065642044656661756C7420536574746967
:1012B0006E6773204C6F61646564000000FA430040
:1012C00000FA430000204100007042AEC73143AE37
:1012D000C731430000C8430080B942102700001006
:1012E000270000F40100008813000020286D6D29FC
:1012F00000203B204C6576656C696E6720002020DD
:101300004D3432302053004175746F2042656420A3
:101310004C6576656C696E670020204D3930302051
:101320004B004C696E65617220416476616E636545
:101330000020204D3134392043203B20556E697404
:101340007320696E2043656C736975730A00546578
:101350006D706572617475726520556E6974730085
:101360002020473231203B004C696E656172205568
:101370006E6974730024F4D43050C38D20C3A2412D
:1013800017828B7011127A900D826CDA0AA861E1D3
:1013900008C7586607615142061F4B5E05C145A646
:1013A000041B411204093D9703723931034136DBB6
:1013B0000266339202D4305302812E1D02642CEE59
:1013C00001762AC501B128A101102781018F25646A
:1013D000012B244A01E1223401AD2120018D200C92
:1013E00001811FFC00851EED00981DDF00B91CD295
:1013F00000E71BC700201BBB00651AB200B319A988
:10140000000A19A0006A189800D217920040178AA3
:1014100000B616840032167E00B41579003B1574B0
:1014200000C7146F0058146A00EE13660088136238
:101430000026135E00C8125B006D1257001612558D
:1014400000C111510070114E0022114C00D61049FC
:10145000008D1046004710450002104200C00F40AA
:1014600000800F3E00420F3C00060F3A00CC0E39C0
:1014700000930E37005C0E3500270E3400F30D325A
:1014800000C10D3100900D2F00610D2F00320D2D88
:1014900000050D2C00D90C2A00AF0C2A00850C2861
:1014A000005D0C2800350C27000E0C2500E90B25EB
:1014B00000C40B2400A00B23007D0B22005B0B213A
:1014C000003A0B2100190B2000F90A1F00DA0A1F4D
:1014D00000BB0A1E009D0A1D00800A1C00640A1C35
:1014E00000480A1C002C0A1B00110A1A00F7091AEE
:1014F00000DD091900C4091900AB09180093091887
:10150000007B091700640917004D091700360916FA
:1015100000200915000B091500F6081500E1081553
:1015200000CC081400B8081400A408130091081394
:10153000007E0813006B08120059081200470812B9
:1015400000350812002308110012081100010810CC
:1015500000F1071100E0071000D0071000C0070FCE
:1015600000B1071000A1070F0092070F0083070FBB
:101570000074070E0066070E0058070E004A070E9B
:10158000003C070E002E070D0021070D0014070D6B
:101590000007070D00FA060D00ED060C00E1060D30
:1015A00000D4060C00C8060C00BC060C00B0060BEC
:1015B00000A5060C0099060B008E060B0083060B97
:1015C0000078060B006D060B0062060B0057060A3A
:1015D000004D060A0043060B0038060A002E060AD4
:1015E00000240609001B060A0011060A0007060966
:1015F00000FE050A00F4050900EB050900E20509F3
:1016000000D9050900D0050900C7050800BF050974
:1016100000B6050900AD050800A50508009D0508F0
:1016200000950509008C050800840508007C050765
:1016300000750508006D050800650507005E0508D2
:1016400000560507004F050800470507004005073D
:101650000039050700320507002B050700240507A0
:10166000001D050700160507000F05060009050700
:101670000002050600FC040700F5040600EF04075D
:1016800000E8040600E2040600DC040600D60406B6
:1016900000D0040700C9040500C4040600BE040607
:1016A00000B8040600B2040600AC040600A6040557
:1016B00000A10406009B04050096040600900405A2
:1016C000008B04060085040500800405007B0405EA
:1016D0000076040600700405006B0405006604052E
:1016E00000610405005C0405005704050052040570
:1016F000004D04050048040400440405003F0405AF
:10170000003A04040036040500310405002C0404EA
:101710000028040500230404001F0405001A040423
:101720000016040400120405000D0404000904045A
:10173000000504040001040500FC030400F8030490
:1017400000F4030400F0030400EC030400E80304C5
:1017500000E4030400E0030400DC030400D80304F5
:1017600000D4030300D1030400CD030400C9030423
:1017700000C503040000000000000000000000009D
:1017800000000000000000000000000000D1036D18
:101790006403570D0347C6023B8B023259022B2EBE
:1017A0000225090221E8011CCC011AB201179B0194
:1017B0001487011374011163010F54010E46010DCA
:1017C00039010D2C010B21010A17010A0D01090431
:1017D0000108FC0008F40007ED0007E60007DF0041
:1017E00006D90006D30005CE0006C80005C30004D4
:1017F000BF0005BA0004B60004B20004AE0004AA9B
:101800000004A60003A300049F00039C00039900AA
:10181000039600039300029100038E00028C0003E4
:101820008900028700038400028200028000027E99
:1018300000027C00027A0002780002760001750046
:10184000027300027100017000026E00016D00025F
:101850006B00016A00026800016700026500016414
:1018600000016300016200026000015F00015E0090
:10187000015D00015C00015B00015A00015900019B
:101880005800015700015600015500015400015352
:1018900000015200015100005100015000014F00B1
:1018A000014E00014D00004D00014C00014B0001B4
:1018B0004A00004A00014900014800004800014771
:1018C00000014600004600014500004500014400BB
:1018D00001430000430001420000420001410000BA
:1018E0004100014000004000013F00003F00013E78
:1018F00000003E00013D00003D00013C00003C00B6
:10190000013B00003B00013A00003A0001390000B1
:101910003900003900013800003800013700003775
:1019200000003700013600003600003600013500A7
:1019300000350001340000340000340001330000A1
:101940003300003300013200003200003200013168
:101950000000310000310000310001300000300093
:10196000003000012F00002F00002F00002F000189
:101970002E00002E00002E00012D00002D00002D55
:1019800000002D00012C00002C00002C00002C0079
:10199000012B00002B00002B00002B00012A00006F
:1019A0002A00002A00002A00002A0001290000293C
:1019B000000029000029000128000028000028005C
:1019C0000028000028000127000027000027000051
:1019D0002700002700012600002600002600002620
:1019E000000026000026000125000025000025003B
:1019F000002500002500002500012400002400002F
:101A000024000024000024000024000123000023FF
:101A10000000230000230000230000230001220017
:101A2000002200002200002200002200002200000C
:101A300022000121000021000021000021000021DE
:101A400000002100002100012000002000002000F3
:101A500000200000200000200000200000200001E5
:101A60001F00001F00001F00001F00001F00001FBC
:101A700000001F000020436F756E7420583A00620A
:101A80006564002C2073797374656D2073746F70B6
:101A900070656421204865617465725F49443A202D
:101AA000004572723A204D415854454D50004D4109
:101AB0005854454D502074726967676572656400BB
:101AC00048656174696E67204661696C65640048A9
:101AD000656174696E67206661696C656400457252
:101AE000723A204D494E54454D50004D494E544593
:101AF0004D5020747269676765726564005448458B
:101B0000524D414C2052554E415741590054686541
:101B1000726D616C2052756E61776179000A0A00FE
:101B200020205A5F4D494E3A002020595F4D4158C0
:101B30003A002020585F4D41583A00202F002042A3
:101B4000403A0020403A002001400130013B014072
:101B50000136016001310170012C0190012701B0B3
:101B6000012201C0011D01F0011801100213013012
:101B7000020E016002090190020401C002FF000090
:101B800003FA004003F5008003F000D003EB0020CF
:101B900004E6007004E100E004DC004005D700C06A
:101BA00005D2004006CD00D006C8008007C3003033
:101BB00008BE00F008B900C009B400B00AAF00B018
:101BC0000BAA00D00CA500000EA000500F9B00C077
:101BD0001096005012910000148C00C0158700B0C0
:101BE000178200B0197D00D01B7800001E730040E2
:101BF000206E0090226900F024640040275F00906E
:101C0000295A00E02B5500102E500020304B0010B8
:101C1000324600E033410090353C00103737007009
:101C2000383200A0392D00B03A2800A03B230060D4
:101C30003C1E00103D1900903D1400103E0F007036
:101C40003E0A00C03E0500003F0000403FFBFF8011
:101C50003FF6FFC03FF1FF2020506C616E6E657251
:101C600042756666657242797465733A2000204653
:101C7000726565204D656D6F72793A200020436F63
:101C80006D70696C65643A204A756E203238203276
:101C90003032350A00204C617374205570646174D1
:101CA00065643A20323032352D30312D3136207C8A
:101CB00020417574686F723A20287365612C204D3D
:101CC000426F74334420477269642034290A004DFE
:101CD00061726C696E20322E312E332D6265746113
:101CE000320A0020536F6674776172652052657303
:101CF00065740A00205761746368646F67205265D9
:101D00007365740A002042726F776E206F757420BD
:101D100052657365740A002045787465726E616C53
:101D20002052657365740A00506F77657255700AAA
:101D30000073746172740A00205A3A0020593A0004
:101D400020583A00656E6473746F7073206869740C
:101D50003A200000002100240027002A002D003036
:101D600000330001010000040107010A0100002204
:101D700000250028002B002E003100340002010055
:101D800000050108010B01000020002300260029A6
:101D9000002C002F003200000100000301060109A1
:101DA0000105050505070508080808020202020AE0
:101DB0000A080804040404010101010101010103EE
:101DC00003030303030303040707070C0C0C0C0CA9
:101DD0000C0C0C0202020206060606060606060B9C
:101DE0000B0B0B0B0B0B0B01021020200808102013
:101DF0004010204080020102010804020101020497
:101E00000810204080804020100804020180040255
:101E100001804020100804020108040201010204AC
:101E20000810204080010204081020408000000AB1
:101E30000B02090C0D0E080703040100000000004E
:101E40000000000000000000000000000000000092
:101E5000000000000000000000121110000000004F
:101E60000000000000000000000000000000000072
:101E7000000000486F6D696E67204661696C65649B
:101E8000000101FF205A3A200020593A2000426503
:101E90006420583A200050726F62696E6720466174
:101EA000696C65640A0020202000202020416E61BA
:101EB0006C6F6720696E203D2025356C64003C7591
:101EC0006E757365642F756E6B6E6F776E3E002056
:101ED0002841253264292020002533642000504900
:101EE0004E3A20004F75747075742000496E7075FD
:101EF00074202000416E616C6F6720696E203D2068
:101F000025356C640070726F7465637465642000BD
:101F100020284125326429202000253364200050E8
:101F2000494E3A20009A0500019505010188053BBC
:101F3000007D0543007205450065054400580532E3
:101F4000014B0533013F05340134053501280525D2
:101F5000011C0523011005110104051001F80417E7
:101F600001EC041901E0041B01D4041D01C8043272
:101F700001BC043401B0041F01A4043501980421FC
:101F8000018C043301800431017404290169041CAB
:101F9000015B0418014F041A014404220136041E97
:101FA000012A04240120042C01170409010A040A4F
:101FB00001FB030801F3030D01E5034201D8030A05
:101FC00001CB030701BE030801B1030901A50332D8
:101FD00001990333018E033401890335017F0335F1
:101FE0000174030B01690306015E03050153030439
:101FF00001490302013F030301340302012A030FD5
:102000000120030E0115030F010B0313010103123D
:1020100001F1022001E7023701DA022601CF023680
:1020200001C5023D01B8023801AD023C01A30230F6
:102030000196023E018B022E01DB0FC93F45BCDA3F
:102040003F8FB30240FCF0274056946140FE4B9B0B
:102050004084A5D840E0231841346A5641E8599796
:102060004164DBD5416E271742B4B75542CE1A976B
:1020700042C8AED542B5885A43D40684BFA65FA7EE
:10208000BF7443E0BF10B11AC01C2C58C0E8F697CB
:10209000C0B849D6C04E4E17C124D355C18024972D
:1020A000C1A0B5D5C1121A17C244AE55C278179750
:1020B000C26CACD5C267885AC320746F6F206C6F36
:1020C0006E6720657874727573696F6E20707265C3
:1020D00076656E7465640A0020636F6C64206578B1
:1020E00074727573696F6E2070726576656E746553
:1020F000640A00486F6D6520257320466972737409
:1021000000220A00556E6B6E6F776E20636F6D6DE7
:10211000616E643A20220020453A00205A3A00209D
:10212000593A00583A00204500205A002059002012
:10213000204D3932205800537465707320706572D9
:1021400020756E6974004572726F722077726974BF
:10215000696E6720746F20454550524F4D210A002B
:102160005072696E7465722068616C7465642E20AB
:102170006B696C6C28292063616C6C6564210A00B2
:10218000627573793A2070617573656420666F7249
:1021900020696E7075740A00627573793A207061F7
:1021A0007573656420666F7220757365720A0062CC
:1021B0007573793A2070726F63657373696E670A1D
:1021C00000746F6F206D75636820696E6163746958
:1021D00076652074696D65202D2063757272656E59
:1021E0007420636F6D6D616E643A20002121204B75
:1021F000494C4C2063617573656420627920004D01
:102200003131322053687574646F776E0050726993
:102210006E7465722073746F707065642064756588
:1022200020746F206572726F72732E204669782059
:10223000746865206572726F7220616E64207573B8
:1022400065204D39393920746F207265737461725D
:10225000742E202854656D706572617475726520E6
:1022600069732072657365742E20536574206974D8
:102270002061667465722072657374617274696E30
:1022800067290A004E6F20436865636B73756D2084
:1022900077697468206C696E65206E756D62657211
:1022A0002C204C617374204C696E653A2000636881
:1022B00065636B73756D206D69736D617463682CF4
:1022C000204C617374204C696E653A20004C696E35
:1022D00065204E756D626572206973206E6F742083
:1022E0004C617374204C696E65204E756D62657229
:1022F0002B312C204C617374204C696E653A2000A0
:102300004D3131300053657269616C2073746174B2
:102310007573206D69736D617463680A006F6B0A71
:1023200000526573656E643A2000129011241FBE3E
:10233000CFEFD1E2DEBFCDBF00E00CBF84B780930A
:10234000C40D14BE0FB6F894A89580916000886102
:1023500080936000109260000FBE13E0A0E0B2E036
:10236000E8EDF8E401E00BBF02C007900D92AA303F
:10237000B107D9F72DE0AAE0B3E001C01D92A43C5B
:10238000B207E1F711E1C6E9D1E100E006C021970B
:102390000109802FFE010E9427A1C539D10780E0E5
:1023A0000807A9F70E94DB900C946AA40C94000023
:1023B000FC0120818091A1079091A207922728E03B
:1023C000AC01880F991F57FD07C02150C9F79093A2
:1023D000A2078093A1070895F1E28F27F0E19F27DC
:1023E000F4CFE9E1F8E080E090E0A0E8BFE380838B
:1023F0009183A283B383148215821682178210867A
:102400001186128613861486158616861786808B8B
:10241000918BA28BB38B148A158A168A178A108E19
:10242000118E128E138E148E158E168E178E80A31B
:1024300091A3A2A3B3A308958150823108F05AC09A
:10244000E82FF0E08827E85DFD4E8F4F0C9427A120
:1024500048124C123A12401244127A124F1255127C
:1024600059125F12631267126D1271127A1275128D
:102470007B127F12809180008F7780938000089577
:10248000809180008F7DF9CF80918000877FF5CF8C
:1024900084B58F7784BD089584B58F7DFBCF8091FF
:1024A000B0008F778093B00008958091B0008F7D49
:1024B000F9CF809190008F7780939000089580915C
:1024C00090008F7DF9CF80919000877FF5CF80912C
:1024D000A0008F778093A00008958091A0008F7D49
:1024E000F9CF8091A000877FF5CF809120018F7771
:1024F000809320010895809120018F7DF9CF8091F4
:102500002001877FF5CFCF93DF93282F30E0F901AB
:10251000E35DF14E8491F901E951F24ED491F90154
:10252000EF55F24EC491CC2399F0811185DFEC2F49
:10253000F0E0EE0FFF1FE957F24EA591B491EC9138
:10254000ED2381E090E009F480E0DF91CF910895E0
:1025500080E090E0FACF1F93CF93DF93282F30E0F5
:10256000F901E35DF14E8491F901E951F24ED49104
:10257000F901EF55F24EC491CC23A1F0162F811131
:102580005BDFEC2FF0E0EE0FFF1FE359F24EA59159
:10259000B4918FB7F894EC91111108C0D095DE2357
:1025A000DC938FBFDF91CF911F910895DE2BF8CF81
:1025B000CF93DF9390E0FC01E951F24E24918F55C7
:1025C000924EFC0184918823C9F090E0880F991FF6
:1025D000FC01ED5AF24EA591B491FC01E359F24E83
:1025E000C591D49161110DC09FB7F8948C9120953D
:1025F00082238C938881282328839FBFDF91CF91EA
:102600000895623051F49FB7F8943C91822F8095E1
:1026100083238C93E8812E2BEFCF8FB7F894EC9126
:102620002E2B2C938FBFEACF863308F08653209150
:102630007B00982F9870277F922B90937B00877058
:10264000806480937C0080917A00806480937A001B
:1026500080917A0086FDFCCF80917800909179007E
:1026600008953FB7F89480916F0490917004A09101
:102670007104B091720426B5A89B05C02F3F19F0D4
:102680000196A11DB11D3FBFBA2FA92F982F8827F2
:10269000BC01CD01620F711D811D911D42E0660FCD
:1026A000771F881F991F4A95D1F708958F929F929F
:1026B000AF92BF92CF92DF92EF92FF926B017C01BB
:1026C000D0DF4B015C01C114D104E104F104B1F08D
:1026D000C8DF681979098A099B09683E734081053A
:1026E000910588F321E0C21AD108E108F10888EECB
:1026F000880E83E0981EA11CB11CE5CFFF90EF90DF
:10270000DF90CF90BF90AF909F908F9008952FB79C
:10271000F89460916B0470916C0480916D049091B9
:102720006E042FBF0895CF93DF93C091BD07D09162
:10273000BE07209721F16091B9077091BA07809187
:10274000BB079091BC070E9486A26E5F7F4F2497C3
:102750006C177D07A4F47093120460931104D7DF03
:10276000605C73468F4F9F4F609313047093140403
:102770008093150490931604DF91CF9108951092E1
:102780001304109214041092150410921604F4CF3E
:102790008F929F92AF92BF92CF92DF92EF92FF9271
:1027A0000F931F93CF93DF93B4E4A0E06A2F70E000
:1027B000AB014B0F511D55954795411119C0E9E4E7
:1027C000FBE165917491072E000C880B990B0E9418
:1027D000989ADF91CF911F910F91FF90EF90DF902A
:1027E000CF90BF90AF909F908F900895B42FE0CF7F
:1027F000A41711F0B41303C0E5E5FCE1E2CF9A01A0
:1028000021503109220F331F220F331FF901E95BD9
:10281000F44EE590F490F901E55BF44EC591D49146
:102820008E159F0518F3A42FC817D90708F4BECF3B
:10283000F901E75BF44E05911491F901E35BF44E65
:10284000C590D4908E199F09BC0190E080E00E9451
:10285000969A4B015C01B601601B710B072E000CB0
:10286000880B990B0E94989A9B01AC01C501B40199
:102870000E94F79A4B015C01CE19DF09BE0190E07E
:1028800080E00E94969A9B01AC01C501B4010E94B0
:102890001EA26B017C01B801110F880B990B0E94DD
:1028A000989A9B01AC01C701B6010E9442A191CF49
:1028B000FC0190E1A7EDB3E001900D929A95E1F74C
:1028C0000895611528E0720781059105B8F081111E
:1028D0004BC023E0729FA00111244B58584EFA01BF
:1028E00025913491FA013296E4916E9F412D112485
:1028F000000C411DC901841B9109089561327105C5
:102900008105910560F1AB01BC014052510961099B
:102910007109DB01CA0123E0B695A79597958795C4
:102920002A95D1F7880F991F880F991F8B589C4EB5
:10293000FC0125913491FC013296A591B491477028
:102940004A9FC0014B9F900D112443E096958795B7
:102950004A95E1F7A901481B590BCA010895E5E71B
:10296000F3E18591949108958EE190E0089520918E
:102970002A02203148F044E096958795779567952F
:102980004A95D1F722952F70243048F032E0969581
:102990008795779567953A95D1F7269526952230B4
:1029A00020F096958795779567958BCF80917003EA
:1029B000877F80937003129A81E008951298809126
:1029C000700388608093700308958130B9F0A0F09F
:1029D0008230B1F021E030E0082E01C0220F0A94CD
:1029E000EAF790917003922B90937003823019F460
:1029F00081E080936F0308955F98ECCF8A98EACFC7
:102A000090910801917090930601E4CFCF93DF93EA
:102A1000EC01853F910564F185EF90E09093BE074E
:102A20008093BD07C5EFD0E06091B9077091BA07F8
:102A30008091BB079091BC070E9486A26E5F7F4F7A
:102A400024976C177D07D4F47093120460931104DB
:102A50005EDE605C73468F4F9F4F609313047093EC
:102A600014048093150490931604DF91CF91089578
:102A70009093BE078093BD07892BB1F61092130483
:102A8000109214041092150410921604EECFCF93F6
:102A9000DF9380916703811119C0C0910A02D09120
:102AA0000B02219720E030E040E05FE36091B9073E
:102AB0007091BA078091BB079091BC070E9442A118
:102AC0000E9486A221E06C177D070CF020E0822F87
:102AD000DF91CF910895CF92DF92EF92FF92809194
:102AE0006C03882309F457C0C0906803D090690331
:102AF000E0906A03F0906B0320E030E0A901C70189
:102B0000B6010E94929A882309F445C020E030E083
:102B100040E05FE3C701B6010E94F79A9B01AC0158
:102B20000E94F79A2BED3FE049E450E40E94F79AA7
:102B30009B01AC0160E070E080E89FE30E941EA270
:102B40006B017C01C0926303D0926403E092650341
:102B5000F09266036091080270910902072E000C42
:102B6000880B990B0E94989A2AE037ED43E25CE3C8
:102B70000E94F79AA70196010E94F79A60933B0280
:102B800070933C0280933D0290933E02FF90EF9041
:102B9000DF90CF900895C12CD12C80E8E82E8FE3F0
:102BA000F82ED0CF90916F0081E091FD02C080E0BF
:102BB000089590916F009D7F90936F000895EFE6C8
:102BC000F0E08081826080830895CF93C82FEADF90
:102BD00094E0C99F90011124F901E553FC4F29525B
:102BE0003C4FD9014D915D916D917C914083518312
:102BF0006283738391E09093CA03882311F0CF918D
:102C0000DECFCF910895CF92DF92EF92FF92CF93D4
:102C1000DF93C82FC7DF94E0C99FE0011124FE01B4
:102C2000E952FC4FC080D180E280F3808111C7DF80
:102C3000C855DB4FC701B6010E94989A2881398197
:102C40004A815B810E94F79ADF91CF91FF90EF90CC
:102C5000DF90CF900895CF92DF92EF92FF92CF93C3
:102C6000DF93C82F9FDF94E0C99FE0011124FE018C
:102C7000E553FC4FC080D180E280F38081119FDF5B
:102C8000C855DB4FC701B6010E94989A2881398147
:102C90004A815B810E94F79ADF91CF91FF90EF907C
:102CA000DF90CF9008958F3010F48F5F08958F508C
:102CB0000895CF93DF939091F4078091F3078917DC
:102CC00040F0891B41F4D0E0C0E0CE01DF91CF910C
:102CD0000895805FF6CF9091F107992351F08330EA
:102CE00030F48FEF890F19F08093F107ECCF109239
:102CF000F107C091F40788E5C89FE0011124C35C87
:102D0000D74F888180FDDFCF8091F407CCDF80939F
:102D1000F207DBCFFC017081472F50E0062E02C086
:102D2000559547950A94E2F740FF14C0409152032D
:102D300050E0062E02C0559547950A94E2F740FFF1
:102D400009C021E030E001C0220F6A95EAF7209522
:102D5000272320830895CF93DF931F92CDB7DEB74B
:102D6000898360E0CE010196D5DF61E0CE01019656
:102D7000D1DF62E0CE010196CDDF89810F90DF9136
:102D8000CF9108958F929F92AF92BF92CF92DF9290
:102D9000EF92FF92CF93DF9320910C02222309F44C
:102DA0008EC0EC0180915203E82E80FF2CC08090F1
:102DB0000E0290900F02A0901002B0901102288194
:102DC00039814A815B81C501B4010E9468A318164C
:102DD00024F488829982AA82BB8280901A02909001
:102DE0001B02A0901C02B0901D02288139814A81EB
:102DF0005B81C501B4010E94929A87FF04C088825A
:102E00009982AA82BB82E1FE2CC08090120290902F
:102E10001302A0901402B09015022C813D814E81C6
:102E20005F81C501B4010E9468A3181624F48C8246
:102E30009D82AE82BF8280901E0290901F02A09061
:102E40002002B09021022C813D814E815F81C5011D
:102E5000B4010E94929A87FF04C08C829D82AE8248
:102E6000BF82E2FE2CC0C0901602D0901702E09004
:102E70001802F0901902288539854A855B85C701BB
:102E8000B6010E9468A3181624F4C886D986EA867B
:102E9000FB86C0902202D0902302E0902402F090A2
:102EA0002502288539854A855B85C701B6010E94C0
:102EB000929A87FF04C0C886D986EA86FB86DF918E
:102EC000CF91FF90EF90DF90CF90BF90AF909F9009
:102ED0008F90089580914E0390914F03A0915003DD
:102EE000B09151038093040290930502A0930602CF
:102EF000B093070280914C0390914D03909303028D
:102F00008093020208958091040290910502A0919D
:102F10000602B091070280934E0390934F03A09353
:102F20005003B09351038091020290910302909359
:102F30004D0380934C0384E690E0909303028093CA
:102F400002020895DC01ED91FC911197208130E09F
:102F500012968C91F90102C0F595E7958A95E2F7F2
:102F6000CF0181700895CF93DF9300D0CDB7DEB746
:102F700000C081E090E00197F0F782EE97E09A833D
:102F800089831B82CE010196DDDF811143C0899ABE
:102F90008FEF80939D0382EE97E09A83898381E08F
:102FA0008B83CE010196CEDF811137C08F9A8FEFD0
:102FB00080939E0382EE97E09A83898382E08B83DD
:102FC000CE010196BFDF90910B01811101C0909558
:102FD000927090930901811123C08FEF80939F031A
:102FE00082EE97E09A83898383E08B83CE010196FA
:102FF000A9DF8823B9F0169881E08093A00300C070
:1030000081E090E00197F0F70F900F900F90DF9123
:10301000CF910895899881E0BCCF8F9881E0C8CF87
:1030200081E0DCCF169A8FEFE8CFCF93DF9300D00B
:10303000CDB7DEB780911904811105C08091750468
:10304000882309F482C080913F03649978C081602D
:1030500080933F039091030180913F0390FD71C0E5
:10306000826080933F0380913F034B996CC08460E2
:1030700080933F0381EE97E09A8389831B82CE0180
:10308000019660DF8823A1F082EE97E09A8389831E
:10309000CE01019657DF882359F080913F0380FFCE
:1030A00007C08091730481608093730480E08DDD9C
:1030B00081EE97E09A83898381E08B83CE0101962C
:1030C00041DF8823A1F082EE97E09A838983CE01C5
:1030D000019638DF882359F080913F0381FF07C0B4
:1030E0008091730482608093730481E06EDD81EED1
:1030F00097E09A83898382E08B83CE01019622DF59
:10310000882319F182EE97E09A838983CE01019694
:1031100019DF81111AC0809175048823B1F0809164
:103120003F0382FF12C08091730484608093730414
:1031300082E00F900F900F90DF91CF9146CD8E7F60
:1031400087CF8D7F8ECF8B7F93CF0F900F900F9077
:10315000DF91CF910895FC01849610861186128626
:1031600013861482158216821782108211821282AF
:1031700013823C96E817F90781F708952F923F9242
:103180004F925F926F927F928F929F92AF92BF9277
:10319000CF92DF92EF92FF920F931F93CF93DF9323
:1031A000CDB7DEB72C970FB6F894DEBF0FBECDBFFC
:1031B0009C878B878B011A013E832D83DB018D90C9
:1031C0009D90AD90BC90FA01C080D180E280F380E8
:1031D000D9018D919D910D90BC91A02D89839A83E9
:1031E000AB83BC83EB85FC85248135814681578187
:1031F000C501B4010E94F79A2B013C01AB85BC8547
:1032000050962D913D914D915C915397C701B60118
:103210000E94F79A9B01AC01C301B2010E9442A136
:103220002B013C01EB85FC85248D358D468D578D1A
:1032300069817A818B819C810E94F79A9B01AC0104
:10324000C301B2010E9442A16F83788789879A8760
:10325000AB85BC8518962D913D914D915C911B9746
:10326000C501B4010E94F79A2B013C01EB85FC8556
:103270002489358946895789C701B6010E94F79A82
:103280009B01AC01C301B2010E9442A12B013C0190
:10329000AB85BC8590962D913D914D915C91939716
:1032A00069817A818B819C810E94F79A9B01AC0194
:1032B000C301B2010E9442A12B013C01EB85FC85B8
:1032C0002081318142815381C501B4010E94F79A66
:1032D0004B015C01AB85BC851C962D913D914D91B8
:1032E0005C911F97C701B6010E94F79A9B01AC0140
:1032F000C501B4010E9442A16B017C01EB85FC85F4
:10330000208D318D428D538D69817A818B819C8195
:103310000E94F79A9B01AC01C701B6010E9442A12D
:10332000D8016D937D938D939C9313978F8198858E
:10333000A985BA85F10180839183A283B383AD818E
:10334000BE814D925D926D927C9213972C960FB632
:10335000F894DEBF0FBECDBFDF91CF911F910F91CB
:10336000FF90EF90DF90CF90BF90AF909F908F90A5
:103370007F906F905F904F903F902F900895CF92E5
:10338000DF92EF92FF920F931F93CF93DF93CDB70E
:10339000DEB7AC970FB6F894DEBF0FBECDBF20915D
:1033A0006D03222309F476C08C01CE010196D3DE91
:1033B000E9E1F8E0DE01119685E298E04191519152
:1033C000619171914D935D936D937C9313974085BB
:1033D00051856285738514964D935D936D937C93AF
:1033E0001797448955896689778918964D935D9317
:1033F0006D937C931B971C968E179F07F9F620E020
:1034000030E04CE553E4F801648175818681978151
:103410000E9441A16B017C0120E030E040E753E4D1
:10342000F80160817181828193810E9441A16DA325
:103430007EA38FA398A7C9A6DAA6EBA6FCA698013F
:10344000285F3F4FAE01475D5F4FBE016B5D7F4F11
:10345000CE01019693DE20E030E04CE553E469A50F
:103460007AA58BA59CA50E9442A16B017C0120E05E
:1034700030E040E753E46DA17EA18FA198A50E94A2
:1034800042A1F8016083718382839383C482D582D1
:10349000E682F782AC960FB6F894DEBF0FBECDBFC2
:1034A000DF91CF911F910F91FF90EF90DF90CF9020
:1034B00008958F929F92AF92BF92CF92DF92EF9238
:1034C000FF921F93CF93DF93CDB7DEB760970FB610
:1034D000F894DEBF0FBECDBF182F80E094DB4B0108
:1034E0005C018092400390924103A0924203B0920B
:1034F000430381E088DB6B017C01C0924403D092DE
:103500004503E0924603F092470382E07CDB609340
:1035100048037093490380934A0390934B031D869D
:103520001E861F86188A89829A82AB82BC82CD82CF
:10353000DE82EF82F88669877A878B879C8783E0B3
:1035400062DB6D877E878F87988BCE01019617DFB0
:103550001E3FD9F480E1FE013196AFE3B2E0019065
:103560000D928A95E1F760960FB6F894DEBF0FBE14
:10357000CDBFDF91CF911F91FF90EF90DF90CF9063
:10358000BF90AF909F908F90089584E0189FF001B6
:103590001124DF01A15CBD4F81E090E08C0F9D1FE5
:1035A000E80FF91F40815181628173814D935D93D2
:1035B0006D937C931397D7CFCF92DF92EF92FF92C8
:1035C0000F931F93CF93DF9300D000D01F921F92D1
:1035D000CDB7DEB720916D03222309F44CC08C01D6
:1035E00020E030E04CE553E4FC0164817581868184
:1035F00097810E9441A16B017C0120E030E040E70F
:1036000053E4F80160817181828193810E9441A11C
:1036100069837A838B839C83CD82DE82EF82F886F6
:103620009801285F3F4FAE014B5F5F4FBE016F5F58
:103630007F4F89E198E0A2DD20E030E04CE553E4E3
:103640006D817E818F8198850E9442A16B017C01F2
:1036500020E030E040E753E469817A818B819C81EE
:103660000E9442A1F8016083718382839383C482A4
:10367000D582E682F78228960FB6F894DEBF0FBE99
:10368000CDBFDF91CF911F910F91FF90EF90DF9011
:10369000CF9008954F925F926F927F928F929F92F8
:1036A000AF92BF92CF92DF92EF92FF92CF93DF93D0
:1036B000CDB7DEB762970FB6F894DEBF0FBECDBFB1
:1036C0009A8B898BDB01FA012D913D914D915C9193
:1036D000139729833A834B835C8324813581468108
:1036E00057812D833E834F83588714964D905D906C
:1036F0006D907C9017972081318142815381298779
:103700003A874B875C8718968D909D90AD90BC90C2
:103710001B97C084D184E284F384A7019601C3017E
:10372000B2010E94F79A6D877E878F87988BA501DB
:1037300094016D817E818F8198850E94F79A9B010B
:10374000AC016D857E858F8598890E9441A1E989AC
:10375000FA896083718382839383A50194016985CB
:103760007A858B859C850E94F79A4B015C01A701A5
:10377000960169817A818B819C810E94F79A9B01D5
:10378000AC01C501B4010E9441A1E989FA896483B1
:103790007583868397832D813E814F81588569810A
:1037A0007A818B819C810E94F79A6B017C0129852B
:1037B0003A854B855C85C301B2010E94F79A9B0153
:1037C000AC01C701B6010E9441A1E989FA8960876D
:1037D000718782879387CF0162960FB6F894DEBF18
:1037E0000FBECDBFDF91CF91FF90EF90DF90CF90D4
:1037F000BF90AF909F908F907F906F905F904F9011
:1038000008950F931F9380913E03813019F50E9414
:1038100087130091360310913703209138033091BC
:103820003903601B710B820B930B28EE33E040E0F1
:1038300050E00E94BCA060913203709133038091EC
:10384000340390913503620F731F841F951F1F91DE
:103850000F91089560913A0370913B0380913C036E
:1038600090913D03D6CF10923E03109236031092F2
:103870003703109238031092390310923A031092D2
:103880003B0310923C0310923D03109232031092BE
:1038900033031092340310923503089580913E0350
:1038A0008150823070F410923E030E94871360931F
:1038B0003A0370933B0380933C0390933D0381E074
:1038C000089580E00895CF93DF93C0910E04D091C6
:1038D0000F04209729F160910A0470910B048091E4
:1038E0000C0490910D040E9486A26E5F7F4F249776
:1038F0006C177D07ACF47093ED036093EC030E94AA
:103900008713605A75418F4F9F4F6093EE037093FA
:10391000EF038093F0039093F103DF91CF9108952B
:103920001092EE031092EF031092F0031092F10345
:10393000F4CFCF93DF9310925802C5EBD7E01986EE
:1039400018860E9493131A862C98C6E0D4E0198634
:103950001886B9DF1A868091020180728093000177
:10396000DF91CF91089590E080E008952091BD0D02
:10397000833021F425FD0CC024FD0CC030E0A901EA
:1039800002C0559547958A95E2F7CA01817008955E
:1039900081E0089580E008958091290384FD0BC0A3
:1039A00080912B0387FD07C090912C03937081E0D9
:1039B00019F480E0089581E00895082E000C990B19
:1039C000FC01EF55F24EE491EE2391F0F0E0EE0FA2
:1039D000FF1FE957F24EA591B4912C918951924E57
:1039E000FC018491282381E090E021F480E0089597
:1039F00080E090E00895082E000C990BFC01EF5533
:103A0000F24EE491F0E0EE0FFF1FED5AF24EA59159
:103A1000B4912C918951924EFC018491822391E0C2
:103A200009F490E0892F08952FEB280F2A3108F030
:103A300047C0E22FF0E08091290390912A03A091E2
:103A40002B03B0912C0304C0B695A7959795879545
:103A50002A95D2F780FD02C081700895E15FFC4F86
:103A6000E081EE2341F18091200590912105E80F3E
:103A7000F92FF11D808190ED980F9A3030F08E3241
:103A800051F4818180538A3098F4F0930E03E093CF
:103A90000D0381E008958D3211F08B3249F481815C
:103AA00090ED980F9A3088F38E3211F48281EACF2C
:103AB000F0E0E0E0EACF10920E0310920D03E9CFA0
:103AC00080E00895B1DF882341F081E020910D036B
:103AD00030910E03232B09F480E0089580913E037A
:103AE0008130C1F08230B9F48CDE60933203709380
:103AF0003303809334039093350381E080933E0336
:103B00000E948713609336037093370380933803C2
:103B1000909339030895A7DEF0CF2091BD0730912F
:103B2000BE07263531053CF420910E0430910F0478
:103B3000263031051CF0882319F0D0CF6111AECEAC
:103B40000895E1EAF5E09491981759F1319695E0DE
:103B5000E33BF907C1F7282F880F330BEFE9F5E0B6
:103B600084918031C4F4E4910E2E000CFF0BF69684
:103B70002E173F07B1F0E0EAF5E08491803174F44C
:103B8000E4910E2E000CFF0BF69681E02E173F07F6
:103B900049F080E00895EFEFFFEFEACFEFEFFFEF9E
:103BA000F4CF81E0089581E00895CF93DF93EC0195
:103BB000E62F660FFF0BE35DF14EE491E250E13139
:103BC00008F0B0C0F0E08827E751F24E8F4F0C9418
:103BD00027A1FA1D921E921E921E921E241E061EE0
:103BE000481E461E261E6C1E6A1E4A1E921E901EEF
:103BF0008E1E6E1E82E1EEE5F2E0DE0101900D9276
:103C00008A95E1F7CE01DF91CF91089581E020EB15
:103C100030E03983288321EB30E03B832A831D8207
:103C20001C8223EB30E03F832E8324EB30E0398786
:103C300028871B861A861D861C8692E09E878F87A2
:103C400081E0888B198ADECF80E0E1CF81E08F5F51
:103C500020E930E03983288321E930E03B832A835F
:103C600022E930E03D832C8328E930E03F832E8336
:103C70002AE930E0398728872CE930E03B872A871A
:103C800026E930E03D872C8793E0D8CF80E0DFCF76
:103C900080E0DECF81E08F5F20EA30E03983288347
:103CA00021EA30E03B832A8322EA30E03D832C8303
:103CB00028EA30E03F832E832AEA30E039872887DC
:103CC0002CEA30E03B872A8726EA30E03D872C87C4
:103CD00094E0B4CF80E0DFCF80E0DECF81E08F5F83
:103CE00020E231E03983288321E231E03B832A83DB
:103CF00022E231E03D832C8328E231E03F832E83B2
:103D00002AE231E0398728872CE231E03B872A8795
:103D100026E231E03D872C8795E090CF80E0DFCF31
:103D200080E0DECF82E1FE0111928A95E9F76ACF49
:103D3000EF92FF920F931F93CF93DF93CDB7DEB730
:103D400062970FB6F894DEBF0FBECDBF6115710547
:103D500079F460E062960FB6F894DEBF0FBECDBF77
:103D6000DF91CF911F910F91FF90EF900C94AB12C8
:103D70006F3F710511F461E0EDCF8B01F82E682FD4
:103D8000CE01019612DF8989882309F477C0E98181
:103D9000FA819F858889911134C0608190E023E089
:103DA00030E0A901481B590B440F551F042E01C0D8
:103DB000220F0A94EAF72095262362E070E001C002
:103DC000660F4A95EAF7262B2083FC013396EE0F07
:103DD000FF1F21E030E02C0F3D1FE20FF31F019089
:103DE000F081E02D1183008362960FB6F894DEBF58
:103DF0000FBECDBFDF91CF911F910F91FF90EF903C
:103E000008952A892111F0CFAFEFB0E0923029F068
:103E1000AD85BE850D90BC91A02D608190E023E022
:103E200030E0A901481B590B440F551F042E01C057
:103E3000220F0A94EAF72095262362E070E001C081
:103E4000660F4A95EAF7262B20830396880F991F61
:103E5000E1E0F0E0EC0FFD1F8E0F9F1FFC01E08002
:103E6000F18098010E94E8A02FEF30E040E050E0A0
:103E70000E94BCA0F70131832083B6CF61E00F37E9
:103E8000110508F460E08F2D65CF9091C00095FF7B
:103E9000FCCF8093C60008958F929F92AF92BF92FD
:103EA000EF92FF921F93CF93DF93CDB7DEB7A0972A
:103EB0000FB6F894DEBF0FBECDBF61157105810549
:103EC000910589F120E04AE0842E912CA12CB12C9F
:103ED00011E0120FEE24E394F12CEC0EFD1EE20E25
:103EE000F11C27FDFA94A50194010E94BCA0F701E2
:103EF0006083B901CA01212F611571058105910502
:103F000039F7115008F1E1E0F0E0EC0FFD1FE10F8F
:103F1000F11D17FDFA95908187E39A3008F480E34C
:103F2000890FB3DFEECF80E3A0960FB6F894DEBF23
:103F30000FBECDBFDF91CF911F91FF90EF90BF904B
:103F4000AF909F908F90A1CFA0960FB6F894DEBF50
:103F50000FBECDBFDF91CF911F91FF90EF90BF902B
:103F6000AF909F908F900895BC0190E080E094CF37
:103F7000CF92DF92EF92FF926B017C01F7FE0AC0B5
:103F8000F094E094D094C094C11CD11CE11CF11CAD
:103F90008DE27BDFC701B601FF90EF90DF90CF90FD
:103FA0007BCF8F929F92AF92BF92CF92DF92EF9290
:103FB000FF926B017C0120E030E0A9010E94929AFF
:103FC00087FF06C08DE261DFF7FAF094F7F8F0940E
:103FD0002BE037ED43EA5BE3C701B6010E9442A143
:103FE0004B015C010E948BA26B017C010E94969A9E
:103FF0009B01AC01C501B4010E9441A14B015C01D0
:10400000C701B60149DF8EE240DF20E030E040E248
:1040100051E4C501B4010E94F79A6B017C010E9432
:104020008BA24B015C0138DFC501B4010E94969A56
:104030009B01AC01C701B6010E9441A120E030E024
:1040400040E251E40E94F79A0E948BA2FF90EF9009
:10405000DF90CF90BF90AF909F908F901DCFCF9368
:10406000DF93EC018991882311F00FDFFBCFDF9103
:10407000CF910895F4DF8DE008DF8AE006CFCF937B
:10408000C82FC15018F080E200DFFBCFCF91089518
:10409000CF93DF93EC01FE0184912196882311F0E8
:1040A000F4DEF9CFDF91CF910895CF93C62FF0DFE3
:1040B0006C2F70E090E080E0CF91EECE811103C0D4
:1040C0008EE599E0E5CF82E699E0FCCFCF93DF93D0
:1040D000C82F85E599E0DCDF0C2E000CDD0BFE011E
:1040E000EF55F24E8491805CD0DEFE01E951F24E34
:1040F000E49180E3E13021F0E6958F5F8933D1F7D9
:10410000DF91CF91C2CECF93C62FC2DF6C2F70E06C
:1041100090E080E0CF912CCFCF92DF92EF92FF9290
:104120006A017B01B5DFC701B601FF90EF90DF9018
:10413000CF9037CF4F925F926F927F928F929F92E4
:10414000AF92BF92CF92DF92EF92FF920F931F93A5
:10415000CF93DF93CFE3D2E04C845D846E847F8481
:104160000BEB14E0F80124813581468157816C8185
:104170007D818E819F810E9442A14B015C01F801EB
:104180002085318542855385688579858A859B851B
:104190000E9442A16B017C01F801208131814281A2
:1041A0005381688179818A819B810E9442A1AB0100
:1041B000BC0183E291E2B0DFB501A4018FE191E29D
:1041C000ABDFB701A6018BE191E2A6DFB301A2014B
:1041D00087E191E2DF91CF911F910F91FF90EF90D6
:1041E000DF90CF90BF90AF909F908F907F906F9017
:1041F0005F904F9091CF89EB95E04ACF83EB95E0AC
:1042000047CFCF93DF93FADFC0912005D0912105EE
:1042100084E091E23DDFCE0122DF81E091E2DF9197
:10422000CF9136CFCF93DF93EB0132DFBE01DD0FAD
:10423000880B990BDF91CF919BCE8AE026CECF934E
:10424000DF93C82FCB0124DFC1110AC0C5EFD0E135
:1042500084E091E11DDFCE011BDFDF91CF91EDCF37
:10426000CAEFD0E1F5CFCF9389E191E111DF8CB1B5
:10427000C1E08295817063E171E18C27E0DF80917C
:10428000030180956DE071E18170D9DF89B183FB15
:10429000882780F967E071E18C27CF91D0CF0F9309
:1042A0001F93CF938C01C62F8FE19FE0F1DEC801F1
:1042B000EFDE8AE3EADD80E38C0FE7DDCF911F912B
:1042C0000F91BBCFCF92DF92EF92FF926A017B01F9
:1042D000DFDEC701B6014CDEFF90EF90DF90CF909C
:1042E000ACCFE8EBF6E08081818340913A075091B2
:1042F0003B0760913C0770913D074F5F5F4F6F4FE9
:104300007F4F81E293E2DEDF8DE193E2C1CECF9277
:10431000DF92EF92FF92CF93DF93EC01C880D980B8
:10432000EA80FB8085E79AE1B3DEC701B60120DEB3
:10433000CC80DD80EE80FF808FE191E2A9DEC701B5
:10434000B60116DE488559856A857B858BE191E249
:10435000DF91CF91FF90EF90DF90CF90B3CFCF93CD
:10436000DF93CDB7DEB72C970FB6F894DEBF0FBE44
:10437000CDBFE0DE0E94D2159CE0E7EDF3E0DE0168
:10438000119601900D929A95E1F781110E94DF1527
:10439000CE010196BCDF2C960FB6F894DEBF0FBE9F
:1043A000CDBFDF91CF9108950F931F93CF938111CC
:1043B00010C0C42F8B0122DF85EC9DE069DEC801AF
:1043C00067DECC2331F08AE360DDCF911F910F913E
:1043D00034CFCF911F910F910895CF93C82F41E013
:1043E000E3DFC11102C0CF9109CFCF910895CF93E0
:1043F000DF9367E371E2F1DFC7ECD4E04C895D89BC
:104400006E897F898FE291E287DE488D598D6A8DB2
:104410007B8D8CE291E280DE4C8D5D8D6E8D7F8D8B
:1044200089E291E279DE48A159A16AA17BA186E2E5
:1044300091E272DEDF91CF9100CFCF93DF936AE6F6
:104440007FE0CBDFC091EF07D091F0074881598121
:104450006A817B8181E69FE05FDE4C815D816E81B8
:104460007F818CE291E258DE4091EB075091EC079E
:104470006091ED077091EE0789E291E24DDE8EE5E5
:104480009FE006DE8BEE92E103DEDF91CF91D5CE89
:10449000CF93C82F41E062E877E086DFC11101C009
:1044A000ADDE4091D5075091D6076091D707709146
:1044B000D80789E797E030DE21E732EB47E25EE399
:1044C0006091D9077091DA078091DB079091DC0742
:1044D0000E941EA2AB01BC0186E797E01DDE21E72A
:1044E00032EB47E25EE36091DD077091DE07809179
:1044F000DF079091E0070E94F79AAB01BC0183E7C8
:1045000097E00ADECF9199CECF92DF92EF92FF92A1
:104510006A017B01BDDDC701B60143DDFF90EF906D
:10452000DF90CF908ACECF93DF9363E17FE055DFBA
:10453000CAE1D4E0488159816A817B818AE09FE0A9
:10454000EBDD4C815D816E817F818CE291E2E4DD67
:10455000488559856A857B8589E291E2DF91CF9113
:10456000D3CF6EE177E039DF6091D7047091D80442
:104570008091D9049091DA040E94969AAB01BC0113
:1045800085E197E0C9DD40910705509108056091EC
:10459000090570910A0582E197E0BEDD40910B05A7
:1045A00050910C0560910D0570910E058FE097E01C
:1045B000B3DD409178045091790460917A04709150
:1045C0007B048CE097E0A0CFCF93DF9362EC76E0A2
:1045D00004DFC7ECD4E04CA95DA96EA97FA989EBE3
:1045E00096E09ADD48AD59AD6AAD7BAD86EB96E0BD
:1045F00093DD4CAD5DAD6EAD7FAD8FE097E0DF91AB
:10460000CF9182CFCF93DF936EE976E0E6DEC7EC01
:10461000D4E04CA15DA16EA17FA185E996E07CDD8F
:1046200048A559A56AA57BA58CE291E275DD4CA54C
:104630005DA56EA57FA589E291E26EDD48A959A925
:104640006AA97BA986E291E267DDDF91CF91F5CD82
:10465000CF93DF9369E776E0C0DEC7ECD4E06881F2
:1046600079818A819B810E94969AAB01BC0180E787
:1046700096E052DD6C817D818E819F810E94969AA9
:10468000AB01BC018CE291E247DD688579858A85C2
:104690009B850E94969AAB01BC0189E291E23CDDC8
:1046A0006C857D858E859F850E94969AAB01BC01A5
:1046B00086E291E231DDDF91CF91BFCD811104C05F
:1046C00080EC95E0E5DCB9CD84EC95E0FBCF809102
:1046D000B8069091B9062FEF3FEF981751F0E92FE8
:1046E000F0E0E854F94F228130E09F5F9F7790938C
:1046F000B906C90108950F931F93CF938C01C62F5C
:104700007ADD40913A0750913B0760913C077091E8
:104710003D07C801D7DDDBDF0196E9F78C2FE1DD2E
:1047200010923F0710923E07CF911F910F9108956D
:10473000EF92FF920F931F93CF93DF93CDB7DEB726
:1047400064970FB6F894DEBF0FBECDBF7C01FB01AE
:1047500060817181828193818E010F5F1F4F22E002
:1047600041E00E94D095F70101900020E9F79F01F8
:10477000215031092E193F092233310550F443E30A
:1047800050E0421B530BBC01C701820F931F0E94D4
:10479000DB99C70164960FB6F894DEBF0FBECDBF9C
:1047A000DF91CF911F910F91FF90EF900895EF92BD
:1047B000FF920F931F93CF93DF93CDB7DEB764972C
:1047C0000FB6F894DEBF0FBECDBF7C01FB01608148
:1047D0007181828193818E010F5F1F4F248141E09F
:1047E0000E94D095F70101900020E9F79F01215028
:1047F00031092E193F092E31310550F44FE150E0B7
:10480000421B530BBC01C701820F931F0E94DB990F
:10481000C70164960FB6F894DEBF0FBECDBFDF911F
:10482000CF911F910F91FF90EF9008958F929F92DB
:10483000AF92BF92CF92DF92EF92FF920F931F93AE
:10484000CF93DF93B4E4A0E06A2F70E0AB014B0F8D
:10485000511D55954795411119C0E9E4FBE165915A
:104860007491072E000C880B990B0E94989ADF9187
:10487000CF911F910F91FF90EF90DF90CF90BF905D
:10488000AF909F908F900895B42FE0CF4A1711F00A
:10489000B41303C0E5E5FCE1E2CF9A0121503109F0
:1048A000220F331F220F331FF901E95BF44EE5900D
:1048B000F490F901E55BF44EC591D4918E159F05F6
:1048C00018F3A42FC817D90708F4BECFF901E75B86
:1048D000F44E05911491F901E35BF44EC590D49028
:1048E0008E199F09BC0190E080E00E94969A4B01CE
:1048F0005C01B601601B710B072E000C880B990B35
:104900000E94989A9B01AC01C501B4010E94F79ADC
:104910004B015C01CE19DF09BE0190E080E00E94EE
:10492000969A9B01AC01C501B4010E941EA26B01C5
:104930007C01B801110F880B990B0E94989A9B017A
:10494000AC01C701B6010E9442A191CF8F929F9204
:10495000AF92BF92EF92FF920F931F93CF93DF938B
:1049600097DB6BDC09E118E0C3E07801D3E0F701E5
:1049700081909190A190B1907F0120E030E0A90159
:10498000C501B4010E9468A318164CF020E030E085
:10499000A901C501B4010E94929A811102C08BE263
:1049A00074DAF70134976081718182819381F9DA39
:1049B00080E26BDAD150D9F640DCC150045F1F4F62
:1049C000C111D3CFDF91CF911F910F91FF90EF9045
:1049D000BF90AF909F908F9008954F925F926F928B
:1049E0007F928F929F92AF92BF92CF92DF92EF927F
:1049F000FF92CF93DF9300D000D01F921F92CDB7CC
:104A0000DEB75C01DB01CD90DD90ED90FC90E09194
:104A1000EF07F091F007FE83ED8384819581A681F5
:104A2000B78189839A83AB83BC839C01AD01C701A5
:104A3000B6010E9441A12B013C01F50180809180CB
:104A4000A280B380AD81BE818D919D910D90BC916E
:104A5000A02D8D839E83AF83B88727E137EB41ED8F
:104A600058EBC301B2010E9468A387FDC9C027E0CB
:104A700030E04CE553E4C301B2010E94929A18164B
:104A80000CF4BEC02D813E814F815885C501B40113
:104A90000E9441A12B013C0127E137EB41ED58EB8E
:104AA0000E9468A387FDACC027E030E040E753E4F4
:104AB000C301B2010E94929A18160CF4A1C020E022
:104AC00030E0A9016D817E818F8198850E9442A18D
:104AD0002B013C0120E030E0A9010E94929A87FF5F
:104AE00003C0412C512C320127E137EB41ED58E353
:104AF000C301B2010E9441A19B01AC01C501B401F7
:104B00000E9468A387FD7CC020E030E040E753E4CA
:104B10006D817E818F8198850E9442A12B013C018D
:104B200020E030E040E753E40E9468A3181634F414
:104B3000412C512C90E7692E93E4792E27E137EB35
:104B400041ED58E3C301B2010E9442A19B01AC01B7
:104B5000C501B4010E94929A18160CF451C020E0CD
:104B600030E0A90169817A818B819C810E9442A1F8
:104B70004B015C0120E030E0A9010E94929A87FF7E
:104B800003C0812C912C540127E137EB41ED58E310
:104B9000C501B4010E9441A19B01AC01C701B6014E
:104BA0000E9468A387FD2CC020E030E04CE553E470
:104BB00069817A818B819C810E9442A14B015C01B9
:104BC00020E030E04CE553E40E9468A3181634F46A
:104BD000812C912C8CE5A82E83E4B82E27E137EBAD
:104BE00041ED58E3C501B4010E9442A19B01AC0113
:104BF000B1E0B983C701B6010E94929A18160CF46D
:104C00001982898128960FB6F894DEBF0FBECDBFFA
:104C1000DF91CF91FF90EF90DF90CF90BF90AF905A
:104C20009F908F907F906F905F904F90089581112B
:104C300010C0E4DA85EC9DE02BDA8EE596E028DA08
:104C400080916C03811103C081E596E021DAF5DAE9
:104C5000D5DA60916C0388E496E055DA40916803F8
:104C60005091690360916A0370916B0385E496E04B
:104C70004BCCCF93DF93C82F41E068E673E194DB20
:104C8000C11101C0BBDA80E693E102DA8BEE92E15A
:104C9000FFD9D3DA41E06EE473E18C2F85DBC111DB
:104CA00001C0ACDA81E393E1F3D98C2FC0DF8C2F04
:104CB0009EDB8C2FA7DC8C2FCBDC8C2F85DC8C2F04
:104CC00050DC8C2F30DC67E073E18C2F86DBD091D9
:104CD0006D038EEF92E1DCD96D2F70E090E080E003
:104CE00047D981EF92E1D4D98D2FE8DC8C2FD0DB2E
:104CF0008C2FA3DB41E062E273E18C2F55DBC11105
:104D000001C07CDA4091A4045091A5046091A604EE
:104D10007091A70489E193E1DF91CF91F5CB809168
:104D20000D0390910E03009731F04AE050E070E0DF
:104D300060E00C94439760E070E0CB010895EFDFF2
:104D4000CB010895CF93DF93EB010E94621D88236E
:104D500019F0DF91CF91F3CFCE01DF91CF9108957C
:104D6000DEDF97FD0AC0DBDF6F3F7105810591052E
:104D700009F02CF4D4DF862F089580E008958FEF9A
:104D8000089580910D0390910E03892B39F0E8DF8F
:104D900091E0811101C090E0892F089591E0FCCF4E
:104DA000CF93DF93C82FD62F0E94621D882319F05E
:104DB000DF91CF91E6CF8C2F0E94141D811101C08D
:104DC0008D2FDF91CF9108954F925F926F927F92D6
:104DD000AF92BF92CF92DF92EF92FF920F931F9309
:104DE000CF93DF9310922E0310922D032FE3209385
:104DF00031031092300310922F0310922903109266
:104E00002A0310922B0310922C039C01E901988134
:104E10002F5F3F4F9032D1F39E34C9F4898190EDDA
:104E2000980F9A3020F08D3211F08B3281F4229657
:104E30009E012F5F3F4F888180538A3008F468C0FD
:104E40009E012F5F3F4F8881803209F463C0D09369
:104E50002105C09320057E018FEFE81AF80A18811A
:104E60006AE270E0C7010E940FA4009731F0FC01D4
:104E7000319780818032E1F311821D3421F01435A5
:104E800011F01734B1F5F70180819FEFE91AF90AA3
:104E90008032C9F380538A3060F51093310330E0DB
:104EA00020E06AE0AF014F5F5F4F629FC001639FE8
:104EB000900D11249C01205331098081280F311D50
:104EC00087FD3A95FA01808180538A3058F33093F8
:104ED000300320932F03DF0131968C918032D9F378
:104EE0001D34D1F426373105B9F4B0932E03A093C5
:104EF0002D03DF91CF911F910F91FF90EF90DF90E5
:104F0000CF90BF90AF907F906F905F904F9008953B
:104F1000E9018ECFE90194CF40E050E0BA0190E082
:104F200080E0C12CD12C7601C394FD0131960C9107
:104F3000002309F488C00132E9F41D34D9F4203289
:104F40003105C1F44093290350932A0360932B0346
:104F500070932C03F0932E03E0932D0363E270E033
:104F6000CF010E940FA4009721F2FC011082C1CF53
:104F7000DF01DBCF01540A3108F061C0DF01BD90D1
:104F8000D0E2AD2EBA1489F0A0EDAB0DAA30F8F046
:104F9000AEE2BA120CC0A181A053AA30C0F00097B3
:104FA00011F4CF010197B12C16C0FD01E7CFADE29E
:104FB000AA2EBA1419F0ABE2BA12F1CFA181B0ED6A
:104FC000BA0FBA3020F0AE3251F7A281E5CFBE2E33
:104FD000BC1A309741F3A02FB0E02601370104C07E
:104FE000440C551C661C771C0A95D2F74429552998
:104FF00066297729A15FBC4FBC92A081A154AA3138
:1050000008F4B6CFDF010191002309F48ECFD0ED73
:10501000BD2EB00ED9E0AD2EAB14A0F7D3EDBD2E52
:10502000B00EAA24A394AB1468F70B3259F3FD0118
:1050300031960C91003209F078CFDF01F8CF00975C
:10504000E1F6CD01DACF90932E0380932D034093A8
:10505000290350932A0360932B0370932C0349CFA9
:10506000DF92EF92FF920F931F93CF93DF931F92E4
:10507000CDB7DEB78C01D42E7C01E60EF71E8091F1
:105080000F05909110050E9497A08983DD2011F0F3
:10509000F8018083CE0101960E94D81180910F05FE
:1050A0009091100501969093100580930F050F5F66
:1050B0001F4F0E151F0519F780E00F90DF91CF915C
:1050C0001F910F91FF90EF90DF90089540916E0334
:1050D00021E0422764E070E0C3CF40916E0321E0FD
:1050E000422761E070E0BCCF40916E0321E042278F
:1050F0006CE070E0B5CF40916E0321E0422761E0A3
:1051000070E0AECF40916E0321E0422768E070E08E
:10511000A7CF40916E0321E042276CE070E0A0CF62
:1051200040916E0321E0422762E070E099CF41E0B8
:1051300061E070E095CF41E062E070E091CF409196
:105140006E0321E042278CCFCF93DF93CDB7DEB73C
:105150006F970FB6F894DEBF0FBECDBF19821F8EBA
:105160009E01285D3F4F43EF50E26EE170E0CE01BB
:1051700001960E945A9A6F960FB6F894DEBF0FBE42
:10518000CDBFDF91CF910895AF92BF92CF92DF92C2
:10519000EF92FF920F931F93CF93DF93C7ECD4E06E
:1051A0000CE814E087EDA82E84E0B82EC12CD12C99
:1051B0007601C39469917991899199910E94969A07
:1051C000288939894A895B890E94F79A0E948BA2B3
:1051D000F80161937193819391938F01C616D7065D
:1051E000E806F90610F46B017C01AC16BD0611F758
:1051F0006FEF7FEFCB01A70196010E94BCA0209327
:105200009C0430939D0440939E0450939F0423EF8D
:1052100034E045E35FE36091780470917904809114
:105220007A0490917B040E94F79A2AE136EF45E9CF
:105230005EE30E941EA26B017C016091D304709119
:10524000D4048091D5049091D6040E94969A9B0133
:10525000AC01C701B6010E94F79A0E94AEA3609309
:10526000A0047093A1048093A2049093A304DF91FF
:10527000CF911F910F91FF90EF90DF90CF90BF9053
:10528000AF9008954F925F926F927F928F929F920C
:10529000AF92BF92CF92DF92EF92FF920F931F9344
:1052A000CF93DF93CDB7DEB7A0970FB6F894DEBFEC
:1052B0000FBECDBF8C016A01DC0155968D909D908B
:1052C000AD90BC905897FB01408051806280738004
:1052D00020E030E0A901C301B2010E94929A882324
:1052E00009F4EBC1A5019401C301B2010E94F79A30
:1052F0000E9474A37B0189879983D6012D913D91EA
:105300004D915C91C501B4010E94F79A0E9474A36B
:10531000ED82FE82B985BF83E981E8872D813E81D8
:105320004F815885203231054105510540F420E276
:1053300030E040E050E02D833E834F8358876983FF
:105340007A838B839C8389819A81AB81BC8180978E
:10535000A105B10540F420E230E040E050E02983AF
:105360003A834B835C83F801E95BFF4F8081918135
:10537000A281B3818097A105B10540F480E290E05D
:10538000A0E0B0E080839183A283B3838081918188
:10539000A281B3818D879E87AF87B88BD8019D96F8
:1053A0002D913D914D915C91D09729873A874B87FC
:1053B0005C87F801ED5AFF4F608171818281938192
:1053C000C12CD12C7601812C912C540161157105D1
:1053D0008105910509F4DCC00E94989A698B7A8B4B
:1053E0008B8B9C8B9B01AC0160E070E080E89FE3BD
:1053F0000E941EA220E030E040E05FE30E94F79AA6
:105400006B017C016D857E858F8598890E94969AB7
:105410006D8B7E8B8F8B988F9B01AC010E94F79ACE
:105420004B015C0169817A818B819C810E94969AF3
:105430009B01AC010E94F79A9B01AC01C501B4012C
:105440000E9441A1A70196010E94F79A6D8F7E8F5D
:105450008F8F98A36D817E818F8198850E94969A07
:105460009B01AC010E94F79A698F7A8F8B8F9C8F7A
:105470009B01AC01C501B4010E9441A1A7019601A5
:105480000E94F79A2B013C010E9408A20E9486A26A
:105490006B017C016D8D7E8D8F8D98A10E9408A27D
:1054A0000E9486A24B015C01D701C601880D991D9F
:1054B000AA1DBB1D29853A854B855C85281B390BA8
:1054C0004A0B5B0BDA01C901B7FF62C069857A85B7
:1054D0008B859C850E94969AA30192010E9442A10D
:1054E0002D8D3E8D4F8D58A10E9441A120E030E0CE
:1054F00040E05FE30E94F79A0E9474A3C12CD12C74
:10550000760197FD0DC06B017C0189859A85AB857D
:10551000BC858C159D05AE05BF0514F46C017D019D
:1055200089849A84AB84BC848C189D08AE08BF081B
:10553000C701B6010E94989A2B013C0129893A893A
:105540004B895C89CA01B9010E9442A19B01AC014F
:10555000C301B2010E94F79A298D3A8D4B8D5C8D63
:105560000E9442A10E94AEA32B013C01AC019B0111
:105570006D897E898F89988D0E9468A3181644F4DE
:10558000C301B2010E948BA26D877E878F87988BA3
:10559000D801D196CD92DD92ED92FC92D497898577
:1055A0009A85AB85BC8588199909AA09BB09F801B8
:1055B00085AB96ABA7ABB0AFE55BFF4F2D813E81CE
:1055C0004F81588520833183428353833496898168
:1055D0009A81AB81BC8180839183A283B3837197CD
:1055E00080819181A281B381892B8A2B8B2B09F435
:1055F0004DC0D80199966D917D918D919C919C970C
:105600000E94969A2091A4043091A5044091A6048A
:105610005091A7040E94F79A6B017C0169857A85F5
:105620008B859C850E94969A9B01AC01C701B601AF
:105630000E941EA26B017C01F801ED5BFF4FFE830F
:10564000ED836D857E858F8598890E94969AA70146
:1056500096010E94F79A0E948BA2AD81BE816D9344
:105660007C93F801EB5BFF4FFE83ED8369817A81C8
:105670008B819C810E94969AA70196010E94F79ABD
:105680000E948BA2AD81BE816D937C93A0960FB6D4
:10569000F894DEBF0FBECDBFDF91CF911F910F9168
:1056A000FF90EF90DF90CF90BF90AF909F908F9042
:1056B0007F906F905F904F900895F801E55BFF4FEA
:1056C000E080F180228129873381398316CE4F9281
:1056D0005F926F927F928F929F92AF92BF92CF9282
:1056E000DF92EF92FF92CF93DF9300D000D0CDB73F
:1056F000DEB79E838D83DC014D905D906D907C9034
:10570000139714968D909D90AD90BC901797189616
:105710008D919D910D90BC91A02D89839A83AB832F
:10572000BC83A3019201C301B2010E94F79A6B01ED
:105730007C01A5019401C501B4010E94F79A9B0167
:10574000AC01C701B6010E9442A16B017C01298115
:105750003A814B815C81CA01B9010E94F79A9B0191
:10576000AC01C701B6010E9442A10E94AEA39B01F9
:10577000AC0160E070E080E89FE30E941EA26B0134
:105780007C01AC019B01C301B2010E94F79AED813B
:10579000FE816083718382839383A7019601C50193
:1057A000B4010E94F79AAD81BE8114966D937D93EA
:1057B0008D939C931797A701960169817A818B81BC
:1057C0009C810E94F79AED81FE81608771878287B4
:1057D000938726960FB6F894DEBF0FBECDBFDF913C
:1057E000CF91FF90EF90DF90CF90BF90AF909F90C0
:1057F0008F907F906F905F904F9008952F923F927F
:105800004F925F926F927F928F929F92AF92BF92D0
:10581000CF92DF92EF92FF920F931F93CF93DF937C
:10582000CDB7DEB764970FB6F894DEBF0FBECDBF1D
:10583000D82E662E442E26E0829F80011124F80186
:10584000E65FF64FA590B490C801885F964F7C0143
:10585000FC0125903490F501808190E09595879525
:10586000F10120812370382F3470722E732AF4E0F6
:105870004F1302C08870782A30E3532E5D0C8EEFF0
:1058800098E00E944820852D0E94451F862D0E9489
:10589000451F83E00E943F20862C062C000C9908AF
:1058A000F401E154F10923E0D29EE00DF11D112431
:1058B000EE0FFF1FE652F74FCE0101966C0193E009
:1058C0004912ABC0A591B4918C911F928F9380ED3A
:1058D00098E09F938F93DF92CF920E942B9AC601FC
:1058E0000E942F200F900F900F900F900F900F900D
:1058F000672D8CEB98E00E945520F701C590D4905D
:1059000080E398E00E944820852D0E94451F862D47
:105910000E94451FF601608170E083E090E08819E5
:105920009909880F991F02C0759567958A95E2F7C6
:10593000637077278DE298E00E941221F501608163
:10594000677070E083EB98E00E9412218AEA98E089
:105950000E944820852D0E94451FF101608186EA42
:1059600098E00E9455208DE998E00E944820852DFE
:105970000E94451FF501608189E998E00E94552049
:10598000F801E45FF64F059114918FE898E00E94CA
:105990004820852D0E94451FF80160818CE898E021
:1059A0000E945520F0EC6F0E23E0872D421240C07C
:1059B000897F21F488E398E00E944820F8018081E3
:1059C00090E002C0959587956A94E2F780FF04C045
:1059D00081E598E00E944820F801808180FF04C0A2
:1059E0008EE698E00E94482064960FB6F894DEBFD9
:1059F0000FBECDBFDF91CF911F910F91FF90EF9020
:105A0000DF90CF90BF90AF909F908F907F906F90DE
:105A10005F904F903F902F900895A591B49111966B
:105A20008C9111978F938C918F9386EC98E051CF46
:105A30008B7F09F4BFCF84EF870D823008F0BECF93
:105A4000B9CFCF93DF93C82FD0E0FE01E35DF14ED5
:105A5000E491E150E231E8F4F0E08827ED5CF24DAA
:105A60008F4F0C9427A1452D732D762D7A2D7D2DEA
:105A7000492D802D842D872D8B2D8E2D912D952DAB
:105A8000982D492D9B2D9F2DA22D43E061E480E0B0
:105A9000B5DE82E599E00E944820FE01EF55F24E06
:105AA000E491E23009F051C0FE01E951F24EE49177
:105AB000E03809F04AC08EE499E00E94482082E173
:105AC0000E943F2086E499E00E9448208CE299E001
:105AD0000E9448208EE00E943F2044E063E481E081
